2402006ERSTE&STEIERMÄRKISCHE BANK                        23057039320100020170316                                                                                                                                                                                                                                                                                                                                                                                                                                                                                                                                                                                                                                                                                                                                                                                                                                                                                                                                                     900
2402006ESBCHR22   HR9624020061100698525HRKKMS                                                                   SPLIT                              04179749446388349540010012017010200011000                                                                                                                                                                                                                                                                                                                                                                                                                                                                                                                                                                                                                                                                                                                                                                                                                                         903
10HR9624020061100698525             1EUR=1,0526USD 1EUR=7,605HRK                                                                                                                2017010220170102HRK               +000000000003612+000000000003612HR99                      HR00547541XXXXXX1462          5,00 USD 650-543-7818  FACEBK *UCSBGBWVG2                                                                                                                                             6986095377                                                                                                                                                                                                                                                                                                                                                                                                                                                                                                                           905
10HR9624020061100698525             1EUR=1,0529USD 1EUR=7,605HRK                                                                                                                2017010220170102HRK               +000000000003019+000000000003019HR99                      HR00547541XXXXXX1454          4,18 USD 650-543-7818  FACEBK *DTFBDBA7P2                                                                                                                                             6986096253                                                                                                                                                                                                                                                                                                                                                                                                                                                                                                                           905
HR9624020061100698525HRKKMS                                                                   0011542017010220161230+000000012041857+000000000000000        000000000000000000000000000000+000000012035226+000000000006631+000000000000000+0000000120352260001000002                                                                                                                                                                                                                                                                                                                                                                                                                                                                                                                                                                                                                                                                                                                                                                 907
2402006ESBCHR22   HR9624020061100698525HRKKMS                                                                   SPLIT                              04179749446388349540020012017010300021000                                                                                                                                                                                                                                                                                                                                                                                                                                                                                                                                                                                                                                                                                                                                                                                                                                         903
10HR7610010051700036001             DOPR.ZA  MIROV.OSIG. ZA STAROST NA TEMELJU                                                               ZAGREB                             2017010320170103HRK               +000000000103438+000000000103438HR6914311-44638834954     HR682283-44638834954-17003    MIO II STUP 12/16                                                                                                                                                                     2017-00460210-6986811552                                                                                                                                                                                                                                                                                                                                                                                                                                                                                                             905
10HR4710010051747412002             POREZ I PRIREZ NA DOHODAK                                                                                VELA LUKA                          2017010320170103HRK               +000000000014671+000000000014671HR99                      HR681945-44638834954-17003    Porez i prirez 12/2016                                                                                                                                                                2017-00460194-6986811548                                                                                                                                                                                                                                                                                                                                                                                                                                                                                                             905
10HR1210010051863000160             DRŽAVNI PRORAÈUN REPUBLIKE HRVATSKE                                                                      ZAGREB                             2017010320170103HRK               +000000000310314+000000000310314HR6914311-44638834954     HR688168-44638834954-17003    MIO I STUP 12/16                                                                                                                                                                      2017-00460208-6986810809                                                                                                                                                                                                                                                                                                                                                                                                                                                                                                             905
10HR6323300033243019454             ROMANA CAKTAŠ                                                                                                                               2017010320170103HRK               +000000000410850+000000000410850HR99                      HR0044638834954-17003-0       Plaæa 12/16                                                                                                                                                                           2017-00460200-6986810806                                                                                                                                                                                                                                                                                                                                                                                                                                                                                                             905
10HR2323400093210626968             Frane Ivaniševiæ                                                                                                                            2017010320170103HRK               +000000000044431+000000000044431HR0244638834954           HR6744638834954-17003-0       1/3 plaæe prosinac 2016                                                                                                                                                               2017-00460206-6986811551                                                                                                                                                                                                                                                                                                                                                                                                                                                                                                             905
10HR6223400093214813077             MAJA DRAGOJEVIÆ                                                                                                                             2017010320170103HRK               +000000000430412+000000000430412HR0244638834954           HR6744638834954-17003-0       PLAÆA 12/16                                                                                                                                                                           2017-00460196-6986810805                                                                                                                                                                                                                                                                                                                                                                                                                                                                                                             905
10HR7123400093220278477             IVAN RAKO                                                                                                                                   2017010320170103HRK               +000000000335600+000000000335600HR0244638834954           HR6744638834954-17003         PLAÆA 12/16                                                                                                                                                                           2017-00460198-6986811549                                                                                                                                                                                                                                                                                                                                                                                                                                                                                                             905
10HR4723400093510712041             Frane Ivaniševiæ                                                                                                                            2017010320170103HRK               +000000000090209+000000000090209HR0244638834954           HR6744638834954-17003-0       2/3 plaæe prosinac 2016                                                                                                                                                               2017-00460204-6986810807                                                                                                                                                                                                                                                                                                                                                                                                                                                                                                             905
10HR6023600001500200999             HT D.D. -UPLATNI RAèUN-T-MOBILE POSTPAID                                                                 ZAGREB                             2017010320170103HRK               +000000000068185+000000000068185HR99                      HR0082728036000-161201-5      Raèun za mobilne usluge 11/2016                                                                                                                                                       2017-00401748-6986692122                                                                                                                                                                                                                                                                                                                                                                                                                                                                                                             905
10HR1723600003242588135             Danijela Spahija                                                                                                                            2017010320170103HRK               +000000000379083+000000000379083HR99                      HR0044638834954-17003-0       Plaæa 12/2016                                                                                                                                                                         2017-00460202-6986811550                                                                                                                                                                                                                                                                                                                                                                                                                                                                                                             905
10HR2024840081102349505             POGLEDI D.O.O.                                                                                           DUBROVNIK                          2017010320170103HRK               +000000000050000+000000000050000HR99                      HR0040-1-1                    Plaæanje po raèunu 40/1/1                                                                                                                                                             2017-00402212-6986692170                                                                                                                                                                                                                                                                                                                                                                                                                                                                                                             905
HR9624020061100698525HRKKMS                                                                   0020012017010320170102+000000012035226+000000000000000        000000000000000000000000000000+000000009798033+000000002237193+000000000000000+0000000097980330002000011                                                                                                                                                                                                                                                                                                                                                                                                                                                                                                                                                                                                                                                                                                                                                                 907
2402006ESBCHR22   HR9624020061100698525HRKKMS                                                                   SPLIT                              04179749446388349540030012017010400031000                                                                                                                                                                                                                                                                                                                                                                                                                                                                                                                                                                                                                                                                                                                                                                                                                                         903
20HR5423300033200277245             BEŠIÆ NIVES                                                                                              IVE TIJARDOVIÆA 14SPLIT            2017010420170104HRK               +000000000012800+000000000012800HR99                      HR0020171-916-1               Majica; ženska L, &quot;Pusti me stba na ime Dora Bešiæ, Ive Tijardoviæa 14, Split                                                                                                    2017-00769436-6987693573                                                                                                                                                                                                                                                                                                                                                                                                                                                                                                             905
HR9624020061100698525HRKKMS                                                                   0030022017010420170103+000000009798033+000000000000000        000000000000000000000000000000+000000009810833+000000000000000+000000000012800+0000000098108330003000001                                                                                                                                                                                                                                                                                                                                                                                                                                                                                                                                                                                                                                                                                                                                                                 907
2402006ESBCHR22   HR9624020061100698525HRKKMS                                                                   SPLIT                              04179749446388349540040012017011200041000                                                                                                                                                                                                                                                                                                                                                                                                                                                                                                                                                                                                                                                                                                                                                                                                                                         903
10HR2710010051740912004             POREZ I PRIREZ NA DOHODAK                                                                                SPLIT                              2017011220170112HRK               +000000000022033+000000000022033HR99                      HR681945-44638834954-17001    Porez na dohodak                                                                                                                                                                      2017-02395500-6994450169                                                                                                                                                                                                                                                                                                                                                                                                                                                                                                             905
10HR9023400091110584880             SYNERGIA SAVJETOVANJE D.O.O.                                                                             ZAGREB                             2017011220170112HRK               +000000000506666+000000000506666HR99                      HR0044638834954               Povrat pozajmice                                                                                                                                                                      2017-02380536-6994459394                                                                                                                                                                                                                                                                                                                                                                                                                                                                                                             905
10HR1123400091110653717             PRAKSA D.O.O.                                                                                            SPLIT                              2017011220170112HRK               +000000000240000+000000000240000HR99                      HR0044638834954               Raèunovodstvene usluge                                                                                                                                                                2017-02379926-6994457552                                                                                                                                                                                                                                                                                                                                                                                                                                                                                                             905
10HR9623400093111835907             Michael Anthony Thomas Freer                                                                                                                2017011220170112HRK               +000000000103868+000000000103868HR99                      HR0044638834954-17001         Neto iznos autorski ugovor                                                                                                                                                            2017-02395354-6994450165                                                                                                                                                                                                                                                                                                                                                                                                                                                                                                             905
HR9624020061100698525HRKKMS                                                                   0040032017011220170104+000000009810833+000000000000000        000000000000000000000000000000+000000008938266+000000000872567+000000000000000+0000000089382660004000004                                                                                                                                                                                                                                                                                                                                                                                                                                                                                                                                                                                                                                                                                                                                                                 907
2402006ESBCHR22   HR9624020061100698525HRKKMS                                                                   SPLIT                              04179749446388349540050012017011400051000                                                                                                                                                                                                                                                                                                                                                                                                                                                                                                                                                                                                                                                                                                                                                                                                                                         903
10HR9524020061031262160             ERSTE&STEIERMÄRKISCHE BANK d.d.                                                                          RIJEKA                             2017011420170114HRK               +000000000009068+000000000009068HR99                      HR99                          Naplata naknade platnog prometa                                                                                                                                                       6996739264                                                                                                                                                                                                                                                                                                                                                                                                                                                                                                                           905
HR9624020061100698525HRKKMS                                                                   0050042017011420170112+000000008938266+000000000000000        000000000000000000000000000000+000000008929198+000000000009068+000000000000000+0000000089291980005000001                                                                                                                                                                                                                                                                                                                                                                                                                                                                                                                                                                                                                                                                                                                                                                 907
2402006ESBCHR22   HR9624020061100698525HRKKMS                                                                   SPLIT                              04179749446388349540060012017011600061000                                                                                                                                                                                                                                                                                                                                                                                                                                                                                                                                                                                                                                                                                                                                                                                                                                         903
10HR1223300031100419285             TRAMAX D.O.O.                                                                                            SPLIT                              2017011620170116HRK               +000000000070360+000000000070360HR99                      HR0044638834854               Plaæanje raèuna 252-002I01-11                                                                                                                                                         2017-03856288-6998425743                                                                                                                                                                                                                                                                                                                                                                                                                                                                                                             905
10HR1223300031100419285             TRAMAX D.O.O.                                                                                            SPLIT                              2017011620170116HRK               +000000000059975+000000000059975HR99                      HR0044638834954               Plaæanje raèuna 297-002I01-01                                                                                                                                                         2017-03856286-6998429643                                                                                                                                                                                                                                                                                                                                                                                                                                                                                                             905
10HR6023600001500200999             HT D.D. -UPLATNI RAèUN-T-MOBILE POSTPAID                                                                 ZAGREB                             2017011620170116HRK               +000000000068185+000000000068185HR99                      HR00827280306000-161201-5     Raèun za mobilne usluge 11/2016                                                                                                                                                       2017-03856292-6998425744                                                                                                                                                                                                                                                                                                                                                                                                                                                                                                             905
10HR6023600001500200999             HT D.D. -UPLATNI RAèUN-T-MOBILE POSTPAID                                                                 ZAGREB                             2017011620170116HRK               +000000000081499+000000000081499HR99                      HR00827280306000-161001-9     Raèun za mobilne usluge 10/2016                                                                                                                                                       2017-03856296-6998425745                                                                                                                                                                                                                                                                                                                                                                                                                                                                                                             905
HR9624020061100698525HRKKMS                                                                   0060052017011620170114+000000008929198+000000000000000        000000000000000000000000000000+000000008649179+000000000280019+000000000000000+0000000086491790006000004                                                                                                                                                                                                                                                                                                                                                                                                                                                                                                                                                                                                                                                                                                                                                                 907
2402006ESBCHR22   HR9624020061100698525HRKKMS                                                                   SPLIT                              04179749446388349540070012017011700071000                                                                                                                                                                                                                                                                                                                                                                                                                                                                                                                                                                                                                                                                                                                                                                                                                                         903
10HR7524020063207166229             IVANA ŠTRLJIÆ                                                                                            SOLIN                              2017011720170117HRK               +000000000182421+000000000182421HR99                      HR0044638834954               Putni nalog                                                                                                                                                                           2017-04337308-6999843151                                                                                                                                                                                                                                                                                                                                                                                                                                                                                                             905
HR9624020061100698525HRKKMS                                                                   0070062017011720170116+000000008649179+000000000000000        000000000000000000000000000000+000000008466758+000000000182421+000000000000000+0000000084667580007000001                                                                                                                                                                                                                                                                                                                                                                                                                                                                                                                                                                                                                                                                                                                                                                 907
2402006ESBCHR22   HR9624020061100698525HRKKMS                                                                   SPLIT                              04179749446388349540080012017011800081000                                                                                                                                                                                                                                                                                                                                                                                                                                                                                                                                                                                                                                                                                                                                                                                                                                         903
10HR5223300033243046424             antonija bašiæ                                                                                                                              2017011820170118HRK               +000000000304296+000000000304296HR99                      HR0044638834954               Putni nalog                                                                                                                                                                           2017-04377628-7000466891                                                                                                                                                                                                                                                                                                                                                                                                                                                                                                             905
10HR0823400093213437619             Davor Ljubenkov                                                                                                                             2017011820170118HRK               +000000000182421+000000000182421HR99                      HR0044638834954               Putni nalog                                                                                                                                                                           2017-04377712-7000466896                                                                                                                                                                                                                                                                                                                                                                                                                                                                                                             905
10HR7123400093220278477             Ivan Rako                                                                                                                                   2017011820170118HRK               +000000000182421+000000000182421HR99                      HR0044638834954               putni nalog                                                                                                                                                                           2017-04377816-7000453854                                                                                                                                                                                                                                                                                                                                                                                                                                                                                                             905
HR9624020061100698525HRKKMS                                                                   0080072017011820170117+000000008466758+000000000000000        000000000000000000000000000000+000000007797620+000000000669138+000000000000000+0000000077976200008000003                                                                                                                                                                                                                                                                                                                                                                                                                                                                                                                                                                                                                                                                                                                                                                 907
2402006ESBCHR22   HR9624020061100698525HRKKMS                                                                   SPLIT                              04179749446388349540090012017012100091000                                                                                                                                                                                                                                                                                                                                                                                                                                                                                                                                                                                                                                                                                                                                                                                                                                         903
10HR9624020061100698525             1EUR=7,57HRK                                                                                                                                2017012120170121HRK               +000000000006048+000000000006048HR99                      HR00547541XXXXXX1454          7,99 EUR LILLE KARAOKE RECISIO                                                                                                                                                        7003938402                                                                                                                                                                                                                                                                                                                                                                                                                                                                                                                           905
HR9624020061100698525HRKKMS                                                                   0090082017012120170118+000000007797620+000000000000704        000000000000000000000000000000+000000007790868+000000000006048+000000000000000+0000000077915720009000001                                                                                                                                                                                                                                                                                                                                                                                                                                                                                                                                                                                                                                                                                                                                                                 907
2402006ESBCHR22   HR9624020061100698525HRKKMS                                                                   SPLIT                              04179749446388349540100012017012500101000                                                                                                                                                                                                                                                                                                                                                                                                                                                                                                                                                                                                                                                                                                                                                                                                                                         903
10HR9624020061100698525             KMS                                                                                                                                         2017012520170125HRK               +000000000050000+000000000050000HR99                      HR99                          potrebe blagajne                                                                                                                                                                      7007199403                                                                                                                                                                                                                                                                                                                                                                                                                                                                                                                           905
HR9624020061100698525HRKKMS                                                                   0100092017012520170121+000000007791572+000000000000704        000000000000000000000000000000+000000007740868+000000000050000+000000000000000+0000000077415720010000001                                                                                                                                                                                                                                                                                                                                                                                                                                                                                                                                                                                                                                                                                                                                                                 907
2402006ESBCHR22   HR9624020061100698525HRKKMS                                                                   SPLIT                              04179749446388349540110012017012700111000                                                                                                                                                                                                                                                                                                                                                                                                                                                                                                                                                                                                                                                                                                                                                                                                                                         903
10HR9624020061100698525             KMS                                                                                                                                         2017012720170127HRK               +000000000040000+000000000040000HR99                      HR99                          POTREBE BLAGAJNE                                                                                                                                                                      7008761334                                                                                                                                                                                                                                                                                                                                                                                                                                                                                                                           905
10HR4423400091110155901             AUDIO PRO ARTIST D.O.O.                                                                                  VIŠNJEVAC                          2017012720170127HRK               +000000000212800+000000000212800HR99                      HR0017-010-000380             plaæanje opreme                                                                                                                                                                       2017-06580544-7008508651                                                                                                                                                                                                                                                                                                                                                                                                                                                                                                             905
10HR8124020061100602862             HGSPOT informatika d.o.o.                                                                                ZAGREB                             2017012720170127HRK               +000000000321480+000000000321480HR99                      HR00100183-9928617-1800       Plaæanje po ponudi 00183-2017                                                                                                                                                         2017-06648672-7008616525                                                                                                                                                                                                                                                                                                                                                                                                                                                                                                             905
HR9624020061100698525HRKKMS                                                                   0110102017012720170125+000000007741572+000000000000000        000000000000000000000000000000+000000007167292+000000000574280+000000000000000+0000000071672920011000003                                                                                                                                                                                                                                                                                                                                                                                                                                                                                                                                                                                                                                                                                                                                                                 907
2402006ESBCHR22   HR9624020061100698525HRKKMS                                                                   SPLIT                              04179749446388349540120012017013000121000                                                                                                                                                                                                                                                                                                                                                                                                                                                                                                                                                                                                                                                                                                                                                                                                                                         903
10HR9624020061100698525             1EUR=7,4851HRK 1EUR=7,53HRK                                                                                                                 2017013020170130HRK               +000000000033728+000000000033728HR99                      HR00547541XXXXXX1462          4029357733 PAYPAL *PLASTICBOTT                                                                                                                                                        7010732338                                                                                                                                                                                                                                                                                                                                                                                                                                                                                                                           905
HR9624020061100698525HRKKMS                                                                   0120112017013020170127+000000007167292+000000000013900        000000000000000000000000000000+000000007119664+000000000033728+000000000000000+0000000071335640012000001                                                                                                                                                                                                                                                                                                                                                                                                                                                                                                                                                                                                                                                                                                                                                                 907
2402006ESBCHR22   HR9624020061100698525HRKKMS                                                                   SPLIT                              04179749446388349540130012017013100131000                                                                                                                                                                                                                                                                                                                                                                                                                                                                                                                                                                                                                                                                                                                                                                                                                                         903
10HR9624020061100698525             KMS                                                                                                                                         2017013120170131HRK               +000000000050000+000000000050000HR99                      HR99                          POTREBE BLAGAJNE                                                                                                                                                                      7011428835                                                                                                                                                                                                                                                                                                                                                                                                                                                                                                                           905
HR9624020061100698525HRKKMS                                                                   0130122017013120170130+000000007133564+000000000177693        000000000000000000000000000000+000000006905871+000000000050000+000000000000000+0000000070835640013000001                                                                                                                                                                                                                                                                                                                                                                                                                                                                                                                                                                                                                                                                                                                                                                 907
2017031600013000062                                                                                                                                                                                                                                                                                                                                                                                                                                                                                                                                                                                                                                                                                                                                                                                                                                                                                                                                                                                                                  909
                                                                                                                                                                                                                                                                                                                                                                                                                                                                                                                                                                                                                                                                                                                                                                                                                                                                                                                                                                                                                                     999
