2340009PRIVREDNA BANKA D.D.                              02535697732100020170131                                                                                                                                                                                                                                                                                                                                                                                                                                                                                                                                                                                                                                                                                                                                                                                                                                                                                                                                                     900
2340009PBZGHR2XXXXHR3323400091110491234HRKFESTIVAL MEDITERANSKOG FILMA SPLIT                                    SPLIT                              02796619169432825010010002017013100011000                                                                                                                                                                                                                                                                                                                                                                                                                                                                                                                                                                                                                                                                                                                                                                                                                                         903
10HR5123300033242726924             GORAN AKRAP                                                           MATOŠEVA 34                        Split                              2017010220170102HRK000000000000000+000000001426930+000000001426930HR99                      HR99                          PN za srpanj i kolovoz 2016.                                                                                                                                                          2017000728374                                                                                                                                                                                                                                                                                                                                                                                                                                                                                                                        905
10HR2823400093103759650             SANDRA BUKOVAC                                                        MATOŠEVA 34                        SPLIT                              2017010420170104HRK000000000000000+000000000307000+000000000307000HR99                      HR99                          Najam ureda 1/2017                                                                                                                                                                    2017002332168                                                                                                                                                                                                                                                                                                                                                                                                                                                                                                                        905
10HR2423400093219849225             ALEN MUNITIÆ                                                          MATOŠEVA 34                        SPLIT                              2017010420170104HRK000000000000000+000000000200000+000000000200000HR99                      HR99                          Isplata dijela putnih naloga                                                                                                                                                          2017002291063                                                                                                                                                                                                                                                                                                                                                                                                                                                                                                                        905
10HR3423400099900000037             PBZ - VISA ELEKTRON DEBITNA KARTICA                                                                      ZAGREB                             2017010420170104HRK000000000000000+000000000095063+000000000095063HR00460331-0000001000     HR0540401-1110491234-0401     POS KBB/BERLINALE ACCREDIT BERLIN  125,00 EUR                                                                                                                                         2017002604130                                                                                                                                                                                                                                                                                                                                                                                                                                                                                                                        905
20HR6423400091000000013             PRIVREDNA BANKA ZAGREB d.d.                                                                              ZAGREB                             2016123120170105HRK000000000000000+000000000000778+000000000000778HR05223026-9900000-777    HR99                          VIRMAN ISPLATE KAMATE KLIJENTU                                                                                                                                                        2017003570597                                                                                                                                                                                                                                                                                                                                                                                                                                                                                                                        905
10HR3423400099900000037             PBZ - VISA ELEKTRON DEBITNA KARTICA                                                                      ZAGREB                             2017010920170109HRK000000000000000+000000000064008+000000000064008HR00460331-0000001000     HR0540401-1110491234-0901     POS MOVING SCOPE PARIS  84,00 EUR                                                                                                                                                     2017006161120                                                                                                                                                                                                                                                                                                                                                                                                                                                                                                                        905
10HR4023300031840900000             GRAD SPLIT                                                            MATOŠEVA 34                        SPLIT                              2017010920170109HRK000000000000000+000000000022554+000000000022554HR99                      HR245770-236453-294707        Komunalna naknada 07-12/16                                                                                                                                                            2017005435276                                                                                                                                                                                                                                                                                                                                                                                                                                                                                                                        905
10HR3423400099900000037             PBZ - VISA ELEKTRON DEBITNA KARTICA                                                                      ZAGREB                             2017010920170109HRK000000000000000+000000000095250+000000000095250HR00460331-0000001000     HR0540401-1110491234-0901     POS KBB/BERLINALE ACCREDIT BERLIN  125,00 EUR                                                                                                                                         2017006161135                                                                                                                                                                                                                                                                                                                                                                                                                                                                                                                        905
10HR6423400091000000013             PRIVREDNA BANKA ZAGREB D.D.                                                                              ZAGREB                             2017011020170110HRK000000000000000+000000000027117+000000000027117HR99                      HR002340-24163873813          NAKNADA ZA USLUGE PLATNOG PROMETA                                                                                                                                                     2017006684474                                                                                                                                                                                                                                                                                                                                                                                                                                                                                                                        905
10HR3423400099900000037             PBZ - VISA ELEKTRON DEBITNA KARTICA                                                                      ZAGREB                             2017011120170111HRK000000000000000+000000000041400+000000000041400HR00460331-0000001000     HR0540401-1110491234-1101     POS TABAN HOSTEL ZAGREB                                                                                                                                                               2017008691571                                                                                                                                                                                                                                                                                                                                                                                                                                                                                                                        905
10HR5923400093218444326             RELJA ZULIM                                                           MATOŠEVA 34                        SPLIT                              2017011120170111HRK000000000000000+000000000278600+000000000278600HR6716943282501-17011-0   HR6940002-16943282501-100 SALAPlaca za 2016-12                                                                                                                                                                      2017007716664                                                                                                                                                                                                                                                                                                                                                                                                                                                                                                                        905
10HR5123300033242726924             GORAN AKRAP                                                           MATOŠEVA 34                                                           2017011120170111HRK000000000000000+000000000294000+000000000294000HR6716943282501-17011-0   HR6940002-16943282501-100 SALAPlaca za 2016-12                                                                                                                                                                      2017007716667                                                                                                                                                                                                                                                                                                                                                                                                                                                                                                                        905
10HR6510010051550100001             HRVATSKI ZAVOD ZA ZDRAVSTVENO OSIGURANJE-OBVEZNO ZDRAV. OSIGURANJE    MATOŠEVA 34                        ZAGREB                             2017011120170111HRK000000000000000+000000000001600+000000000001600HR002017-5                HR688630-16943282501-17011    Doprinos za zastitu zdravlja na radu 2016-12                                                                                                                                          2017007716655                                                                                                                                                                                                                                                                                                                                                                                                                                                                                                                        905
10HR2423400093219849225             ALEN MUNITIÆ                                                          MATOŠEVA 34                        SPLIT                              2017011120170111HRK000000000000000+000000000285000+000000000285000HR6716943282501-17011-0   HR6940002-16943282501-100 SALAPlaca za 2016-12                                                                                                                                                                      2017007716663                                                                                                                                                                                                                                                                                                                                                                                                                                                                                                                        905
10HR1210010051863000160             DRŽAVNI PRORAÈUN REPUBLIKE HRVATSKE                                   MATOŠEVA 34                        ZAGREB                             2017011120170111HRK000000000000000+000000000005440+000000000005440HR002017-4                HR688753-16943282501-17011    Doprinos za zaposljavanje 2016-12                                                                                                                                                     2017007729490                                                                                                                                                                                                                                                                                                                                                                                                                                                                                                                        905
10HR1210010051863000160             DRŽAVNI PRORAÈUN REPUBLIKE HRVATSKE                                   MATOŠEVA 34                        ZAGREB                             2017011120170111HRK000000000000000+000000000142800+000000000142800HR002017-1                HR688168-16943282501-17011    Mirovinsko osiguranje (generacijskasolidarnost)                                                                                                                                       2017007729522                                                                                                                                                                                                                                                                                                                                                                                                                                                                                                                        905
10HR7610010051700036001             DOPR.ZA  MIROV.OSIG. ZA STAROST NA TEMELJU IND.KAPIT.ŠTEDNJE          MATOŠEVA 34                        ZAGREB                             2017011120170111HRK000000000000000+000000000047600+000000000047600HR002017-2                HR682283-16943282501-17011    Mirovinsko osiguranje (individualnakapitaliziran                                                                                                                                      2017007729488                                                                                                                                                                                                                                                                                                                                                                                                                                                                                                                        905
10HR6510010051550100001             HRVATSKI ZAVOD ZA ZDRAVSTVENO OSIGURANJE-OBVEZNO ZDRAV. OSIGURANJE    MATOŠEVA 34                        ZAGREB                             2017011120170111HRK000000000000000+000000000048000+000000000048000HR002017-3                HR688486-16943282501-17011    Doprinos za zdravstveno osiguranje2016-12                                                                                                                                             2017007729486                                                                                                                                                                                                                                                                                                                                                                                                                                                                                                                        905
20HR5624110061120004923             DRUŠTVO ZA OÈUVANJE ŠIBENSKE BAŠTINE JURAJ DALMATINAC                 PUT GIMNAZIJE 36                   ŠIBENIK                            2017011220170112HRK000000000000000+000000000245000+000000000245000HR07803020-02776448       HR004-1-1                     PL.RN.4-1-1                                                                                                                                                                           2017009673919                                                                                                                                                                                                                                                                                                                                                                                                                                                                                                                        905
10HR3423400099900000037             PBZ - VISA ELEKTRON DEBITNA KARTICA                                                                      ZAGREB                             2017011320170113HRK000000000000000+000000000045570+000000000045570HR00460331-0000001000     HR0540401-1110491234-1301     POS SQPCM CLERMONT FERR  60,00 EUR                                                                                                                                                    2017011138373                                                                                                                                                                                                                                                                                                                                                                                                                                                                                                                        905
10HR3423400099900000037             PBZ - VISA ELEKTRON DEBITNA KARTICA                                                                      ZAGREB                             2017011320170113HRK000000000000000+000000000010633+000000000010633HR00460331-0000001000     HR0540401-1110491234-1301     POS C POMPIDOU VEL  2359780 PARIS  14,00 EUR                                                                                                                                          2017011138389                                                                                                                                                                                                                                                                                                                                                                                                                                                                                                                        905
10HR2423400093219849225             ALEN MUNITIÆ                                                          MATOŠEVA 34                        SPLIT                              2017011520170115HRK000000000000000+000000000300000+000000000300000HR99                      HR99                          Isplata dijela putnih naloga                                                                                                                                                          2017012388704                                                                                                                                                                                                                                                                                                                                                                                                                                                                                                                        905
10HR6423600001101431890             MULTIMEDIJALNA OAZA TRGOVINE D.O.O.ZA TRGOVINU I USLUGE               MATOŠEVA 34                        TROGIR                             2017011820170118HRK000000000000000+000000000348000+000000000348000HR99                      HR99                          Raèun br. 817-M001-10                                                                                                                                                                 2017016092463                                                                                                                                                                                                                                                                                                                                                                                                                                                                                                                        905
10HR0623400093231089133             MARTINA BODULJAK                                                      MATOŠEVA 34                        SPLIT                              2017012020170120HRK000000000000000+000000000200000+000000000200000HR99                      HR99                          Isplata putnih naloga                                                                                                                                                                 2017018396941                                                                                                                                                                                                                                                                                                                                                                                                                                                                                                                        905
10HR3923600001501706429             UDRUGA RESTART                                                        MATOŠEVA 34                        ZAGREB                             2017012020170120HRK000000000000000+000000000075000+000000000075000HR99                      HR99                          Racun 159/1/1                                                                                                                                                                         2017018392667                                                                                                                                                                                                                                                                                                                                                                                                                                                                                                                        905
10HR0923400091110610491             2I FILM D.O.O.                                                        MATOŠEVA 34                        ZAGREB                             2017012020170120HRK000000000000000+000000000255390+000000000255390HR99                      HR99                          Raèuni: 3603, 3604, 3605, 3606,3808, 3887, 3888, 3889                                                                                                                                 2017018392666                                                                                                                                                                                                                                                                                                                                                                                                                                                                                                                        905
10HR5425000091101068592             BLITZ FILM I VIDEODISTRIBUCIJA  D.O.O.                                MATOŠEVA 34                        ZAGREB-SLOBOŠTINA                  2017012020170120HRK000000000000000+000000000018281+000000000018281HR99                      HR99                          Raèun: 8074                                                                                                                                                                           2017018392665                                                                                                                                                                                                                                                                                                                                                                                                                                                                                                                        905
10HR3423400099900000037             PBZ - VISA ELEKTRON DEBITNA KARTICA                                                                      ZAGREB                             2017012020170120HRK000000000000000+000000000036600+000000000036600HR00460331-0000002000     HR0540401-1110491234-2001     POS KONOBA MATONI SPLIT                                                                                                                                                               2017018677860                                                                                                                                                                                                                                                                                                                                                                                                                                                                                                                        905
10HR9424920081100050899             ÈISTOÆA D.O.O.                                                        MATOŠEVA 34                        21000 SPLIT                        2017012320170123HRK000000000000000+000000000004693+000000000004693HR99                      HR99                          Raèun: 1216                                                                                                                                                                           2017018549003                                                                                                                                                                                                                                                                                                                                                                                                                                                                                                                        905
10HR6023600001500200999             HT D.D. -UPLATNI RAÈUN-T-MOBILE POSTPAID                              MATOŠEVA 34                        ZAGREB                             2017012320170123HRK000000000000000+000000000118173+000000000118173HR99                      HR01825791431000-170101-5     Raèun za 12/2016                                                                                                                                                                      2017018540442                                                                                                                                                                                                                                                                                                                                                                                                                                                                                                                        905
10HR5924020061100479680             ERSTE CARD CLUB D.O.O                                                 MATOŠEVA 34                        ZAGREB                             2017012320170123HRK000000000000000+000000000647932+000000000647932HR99                      HR99                          Raèun za prosinac                                                                                                                                                                     2017018549004                                                                                                                                                                                                                                                                                                                                                                                                                                                                                                                        905
10HR8923300031500089424             VODOVOD I KANALIZACIJA D.O.O.                                         MATOŠEVA 34                        SPLIT                              2017012320170123HRK000000000000000+000000000008704+000000000008704HR99                      HR0516110829870-377479    WTERPotrošak 14.11.2016. - 14.12.2016.                                                                                                                                                    2017018539057                                                                                                                                                                                                                                                                                                                                                                                                                                                                                                                        905
10HR3423400099900000037             PBZ - VISA ELEKTRON DEBITNA KARTICA                                                                      ZAGREB                             2017012620170126HRK000000000000000+000000000021267+000000000021267HR00460331-0000001000     HR0540401-1110491234-2601     POS LIDL HRVATSKA DOO P-21 SPLIT                                                                                                                                                      2017023523281                                                                                                                                                                                                                                                                                                                                                                                                                                                                                                                        905
10HR2423400093219849225             ALEN MUNITIÆ                                                          MATOŠEVA 34                        SPLIT                              2017012720170127HRK000000000000000+000000000200000+000000000200000HR99                      HR99                          Isplata dijela putnih naloga                                                                                                                                                          2017023898009                                                                                                                                                                                                                                                                                                                                                                                                                                                                                                                        905
10HR0823300033252494919             LUKA ŠIMIÆ                                                            MATOŠEVA 34                        Solin                              2017012720170127HRK000000000000000+000000000300800+000000000300800HR99                      HR99                          LV i PN za prosinac 2016                                                                                                                                                              2017023897781                                                                                                                                                                                                                                                                                                                                                                                                                                                                                                                        905
10HR3423400099900000037             PBZ - VISA ELEKTRON DEBITNA KARTICA                                                                      ZAGREB                             2017012820170128HRK000000000000000+000000000065751+000000000065751HR00460331-0000001000     HR0540401-1110491234-2801     POS VOLOTEA S L R7DDPZ PAYPAL COM                                                                                                                                                     2017024972387                                                                                                                                                                                                                                                                                                                                                                                                                                                                                                                        905
10HR8623600001101345746             HRVATSKO DRUŠTVO SKLADATELJA                                          MATOŠEVA 34                        ZAGREB                             2017013120170131HRK000000000000000+000000000542639+000000000542639HR99                      HR004300-260615               Plaèanje po ugovoru                                                                                                                                                                   2017027164264                                                                                                                                                                                                                                                                                                                                                                                                                                                                                                                        905
10HR9023400091110584880             SYNERGIA SAVJETOVANJE D.O.O.                                          MATOŠEVA 34                        ZAGREB                             2017013120170131HRK000000000000000+000000000240000+000000000240000HR99                      HR99                          Raèuni: 29, 1, 2 i 3                                                                                                                                                                  2017027136100                                                                                                                                                                                                                                                                                                                                                                                                                                                                                                                        905
10HR4623900011100337943             VIPNET D.O.O.                                                         MATOŠEVA 34                        ZAGREB                             2017013120170131HRK000000000000000+000000000013500+000000000013500HR99                      HR04135120896-201612      OTLCRaèun za prosinac 2016                                                                                                                                                                2017027136098                                                                                                                                                                                                                                                                                                                                                                                                                                                                                                                        905
10HR4623900011100337943             VIPNET D.O.O.                                                         MATOŠEVA 34                        ZAGREB                             2017013120170131HRK000000000000000+000000000021480+000000000021480HR99                      HR04135120896-201611      OTLCRaèun za studeni 2016                                                                                                                                                                 2017027136096                                                                                                                                                                                                                                                                                                                                                                                                                                                                                                                        905
HR3323400091110491234HRKFESTIVAL MEDITERANSKOG FILMA SPLIT                                    0010002017013120161231+000000012494420 000000000000000        000000000000000000000000000000 000000000000000+000000006856775+000000000245778+0000000058834230001000040                                                                                                                                                                                                                                                                                                                                                                                                                                                                                                                                                                                                                                                                                                                                                                 907
2017013100001000044                                                                                                                                                                                                                                                                                                                                                                                                                                                                                                                                                                                                                                                                                                                                                                                                                                                                                                                                                                                                                  909
                                                                                                                                                                                                                                                                                                                                                                                                                                                                                                                                                                                                                                                                                                                                                                                                                                                                                                                                                                                                                                     999
